:1018000020C06DC239C0FFC3FFC3FFC306C1FFC301
:10181000FFC3FFC3FFC3FFC3FFC3FFC3FFC3FFC3B8
:10182000FFC3FFC3FFC36CC1EFC1F0C1F1C1F3C17E
:10183000B8C2B3C22A07299028022B0360020F07FF
:10184000FF0011241FBECFE5D4E0DEBFCDBF10E006
:10185000A0E6B0E0E8EEFFE102C005900D92A437EB
:10186000B107D9F710E0A4E7B0E001C01D92AB3793
:10187000B107E1F7ABD2B6C3C3CFC82FF89484E069
:1018800090E086D3882319F0682F606803C089D25E
:10189000682F6C2B84E090E088D3FFCF0F931F93C9
:1018A000FC01009176001091770020917800309132
:1018B00079000183128323833483108246836783F4
:1018C000A3D11F910F91089525E1FC01278365E1C4
:1018D00041E0E4DF0895CF93DF93E0E0F0E0CFEF65
:1018E000DFEF8491C8278C2F82958C27082E869550
:1018F00086958025082E8695802587700C2ECD2F05
:10190000869507948795D02DC82706948795D0256E
:10191000C827319688E1E030F80719F785E090E0B4
:101920003FD38C179D0751F4F8941EBC19BE81E07B
:101930008BBF1BBED2D0E0E0F0E00995DF91CF91E4
:101940000895EF92FF920F931F93CF93DF938C0133
:10195000EB0123D2F894E199FECFA80186E0440F71
:10196000551F8A95E1F783E0FA0180935700E895C7
:1019700007B600FCFDCF20E030E061E08881F9800F
:10198000EE24F701E80FF11DCF012296F901E40FD3
:10199000F51F0C0160935700E89511242E5F3F4F0F
:1019A0002034310559F785E0FA0180935700E89516
:1019B00007B600FCFDCF81E180935700E895A0D0E9
:1019C0007894DF91CF911F910F91FF90EF90089540
:1019D000CF93DF93EC011CD18823D9F0CE011BD12A
:1019E00049815A816B817C8180917600909177004A
:1019F000A0917800B0917900481759076A077B07D2
:101A000029F481E090E02E81222321F480E090E00F
:101A100001C080E0DF91CF910895CF93DF93EF93E2
:101A2000EFB7C0917400D09175002196C0937400F7
:101A3000D0937500EFBFEF91DF91CF9118959C0186
:101A400080E090E044EF51E004C0FA013197F1F7F3
:101A5000019682179307C9F708951F93CF93DF93D9
:101A60000F92CDB7DEB7182FC29882E06983A9D153
:101A7000812FA7D16981862FA4D1C29A0F90DF91BF
:101A8000CF911F910895C2989CD18FEF9AD1C29A9D
:101A90000895CF93DF9388D1C29880EC92D1C29AF7
:101AA00082E48A95F1F7C4E3D8E1FE01859194912F
:101AB000692F8F3F49F02296D0DFFE012296859153
:101AC0009491692F8F3FC1F785B78C7F85BF8BB706
:101AD00080648BBFDF91CF910895882321F48BB769
:101AE0008F7B8BBF08958BB780648BBF08959FB7A2
:101AF000F89420916100822B809361009FBF08952C
:101B00001092600010926100C4DF0895CF92DF92BE
:101B1000EF92FF920F931F93CF93DF930F92CDB766
:101B2000DEB77C01FC0106818BB78F7B8BBF80EA1F
:101B3000AADF89838BB780648BBF898182FF0CC049
:101B400082E090E00F90DF91CF911F910F91FF9075
:101B5000EF90DF90CF900895F7018081882321F0E6
:101B6000108281E090E0EECF8FE0C82EC0228BB7CC
:101B70008F7B8BBFC29880E424D1F7019481990FA9
:101B8000990F990F8381829586958770892B19D13A
:101B9000F7012381822F8370886030E02C713070D0
:101BA000220F331F220F331F220F331F822B09D125
:101BB000F701828106D1F701818103D1F701858187
:101BC000882391F08C2D8064FCD0C29A0000C298CA
:101BD00081E8F7D0C29A8BB780648BBF81E0F701B0
:101BE000808382E090E0AECF8C2DEBD0CC2069F3E7
:101BF0008701095F1F4FDD24F80181918F01E1D03A
:101C0000D394DC14C9F7E1CF81DF08957FDF089515
:101C1000809160000895FC01A2E6B0E08FE00D9095
:101C200001928150E1F78FB7F894109260008FBF56
:101C30000895EF92FF920F931F93CF93DF930F922C
:101C4000CDB7DEB78C01862FC298BBD08FEFB9D04D
:101C5000982F969596959695F80194838295880F7E
:101C6000807E83838FEFADD0282F2370F80193817E
:101C7000292B90E0807E9070959587959595879516
:101C800095958795282B23838FEF9BD0F80182832E
:101C90008FEF97D0F80181838FEF93D0898399815B
:101CA0009074F80195834FE0E42EE822E982E68201
:101CB000EE2059F0095F1F4FFF248FEF82D0F8010B
:101CC00081938F01F394FE14C1F7C29A81E00F90C3
:101CD000DF91CF911F910F91FF90EF9008951F9288
:101CE0000F920FB60F9211240F931F932F933F93D0
:101CF0004F935F936F937F938F939F93AF93BF9314
:101D0000EF93FF93CF93DF93CDB7DEB76097DEBF3E
:101D1000CDBF80EBB8DE8983898186FD1BC08981B8
:101D200087FD33C06096DEBFCDBFDF91CF91FF91BD
:101D3000EF91BF91AF919F918F917F916F915F9143
:101D40004F913F912F911F910F910F900FBE0F90C8
:101D50001F9018958E010E5F1F4FC80160E969DF63
:101D600089838130F9F6809160008F5F80936000F5
:101D7000823010F082E0BBDEA2E6B0E0F8018FE036
:101D800001900D928150E1F7CDCF8E010E5F1F4F74
:101D9000C80164E94EDF8983E4CF8FE067E85DDE48
:101DA000089580916100089587B3886287BB88B3E6
:101DB000877C88BBBA9AC29A80E58DB981E08EB9DA
:101DC00008958FB9779BFECF8FB10895CF93DF939E
:101DD000CDB7DEB7CF54D0400FB6F894DEBF0FBEFC
:101DE000CDBF81E08BBF82E08BBF10927A0088EE7E
:101DF00093E025DE85DE8AE08EBD8AEF90E09BBD14
:101E00008ABD89B7806189BF789480E090E0C8D0AE
:101E1000909377008093760082E090E0C1D0909319
:101E200079008093780000E0EE24FF2404B600FEE1
:101E300021C003C021E0D21601F1F8948091740012
:101E4000909175002BE0893B920740F0789443DD38
:101E5000CE01019639DDDD24D39401C0DD247894D0
:101E6000CE010196B5DD882309F47FC088858930CD
:101E700009F07BC0DD24D39478C0CE010196A8DDA3
:101E8000882309F47AC088858E3009F45DC08F30CC
:101E900030F48B3091F08C3009F06FC009C0803184
:101EA00009F457C08031D0F1833109F066C043C0D6
:101EB0009F81DE01199681E01BC0E984FA8480E6E7
:101EC000E816F10408F44FC080917A008061809395
:101ED0007A0000E05FE5E52EF12C4FC02D91E0E1A6
:101EE000F0E0EC0FFD1FE00FF11D20830F5F8F5F0F
:101EF000891710F4003490F3003409F03EC08701D4
:101F00000F5F1F4FC701BE01605F7F4F1ADDCE011B
:101F100001966DE041E0C2DC780125C03EDFF89417
:101F200089859A856B8541D0EBDD7894CE01019649
:101F300062E141E016C089859A852AD08987CE0161
:101F4000019664E142E00DC0C6DCCE010196BCDC26
:101F500014C0C986BA86AB869C86CE01019661E123
:101F600045E09CDC0AC000E008C09EE1C92E23E9E0
:101F7000B22E37E0A32E42E0942E13DF882329F4FB
:101F800080917A00882309F455CF80917A0075DC1E
:101F9000E199FECF9FBB8EBBE09A99278DB3089540
:101FA000A8E1B0E042E050E00FC0262FE199FECF5B
:101FB0009FBB8EBB2DBB0FB6F894E29AE19A0FBE81
:101FC00001960895DC01CB01FC01E199FECF06C02A
:101FD000FFBBEEBBE09A31960DB20D9241505040DE
:081FE000B8F70895F894FFCF53
:101FE80000000000000000000000000000000000E9
:041FF80000000000E5
:0400000300001800E1
:00000001FF
