:1018000022C0E9C23BC0FFC3FFC3FFC338C0FFC350
:10181000FFC3FFC3FFC3FFC3FFC3FFC3FFC3FFC3B8
:10182000FFC3FFC3FFC3C7C3C4C3C1C34CC24FC2BE
:101830005CC25FC22A07299028022B0360427040D5
:101840000C000D00FF0011241FBECFE5D4E0DEBF69
:10185000CDBF10E0A0E6B0E0E6EFFFE102C00590EA
:101860000D92A437B107D9F710E0A4E7B0E001C0AA
:101870001D92AB37B107E1F7C4D0BCC3C1CFCF9342
:10188000DF93EF93EFB7C0917400D091750021966C
:10189000C0937400D0937500EFBFEF91DF91CF91AB
:1018A0001895CF93DF93EC010ED2882399F0CE01E7
:1018B0000ED229813A814B815C8180917600909192
:1018C0007700A0917800B0917900281739074A076E
:1018D0005B0719F080E090E009C090E08E818823DA
:1018E00009F491E081E09827892F9927DF91CF9122
:1018F00008951F93CF93DF93182FEB01FAD1F8943B
:10190000E199FECF612F7727F6E0660F771FFA95F2
:10191000E1F783E0FB0180935700E89507B600FCF0
:10192000FDCFA0E0B0E058818981229641E09D0181
:10193000260F371F9927982F8827850F911D0C0197
:10194000F90140935700E89511241296A034B1058F
:1019500051F785E0FB0180935700E89507B600FC3E
:10196000FDCF81E180935700E89525D37894DF91EE
:10197000CF911F9108951F93182FF894A4E0B0E021
:1019800020D3802D882311F0806802C0AED1812B36
:10199000A4E0B0E0082E22D3FFCF2FEF3FEFE0E02E
:1019A000F0E084912827822F82958227082E869541
:1019B00086958025082E869580258770022E232FF8
:1019C000869507948795302D28270694879530258E
:1019D0002827319688E1E030F80719F7A5E0B0E054
:1019E000F8D2E217F30711F088E0C5DFF8941EBCC7
:1019F00019BE81E08BBF1BBE2BD1E0E0F0E0099562
:101A00000895C0E1D4E0DEBFCDBF81E08BBF82E0AE
:101A10008BBF10927A0088EE93E0E3D0CCD28AE0BC
:101A20008EBD8AEF90E09BBD8ABD89B7806189BF7A
:101A30007894A0E0B0E0CDD2F0937700E093760008
:101A4000A2E0B0E0C6D2F0937900E093780089E795
:101A500088878091760090917700A0917800B0916E
:101A600079008A839B83AC83BD83198281E08F8355
:101A70008E010F5F1F4FC8019CD205C081E090E02E
:101A8000B0D0C80194D28230C9F304B600FC05C0BE
:101A900001E0CC24DD2410E08AC000E0CC24DD2469
:101AA00010E008C00130E9F0013020F0023009F008
:101AB00078C06EC0F8948091740090917500895B35
:101AC0009B4010F0789469DF7894CE010196E9DEAE
:101AD000882309F46CC08885893009F068C001E06A
:101AE00066C0C701DEDE882309F46FC088858C30AC
:101AF00069F08D3020F48B3009F067C00AC08E3059
:101B000009F444C08F3009F060C036C02F8191E0E5
:101B100017C0D9848FE58D1538F480917A008061E3
:101B200080937A001FE5D12E10E04FC0F501E10F40
:101B3000F11DD401A90FB11D8C9180831F5F9F5FA0
:101B4000921710F4103490F3103409F03EC01D2D9C
:101B50001F5FB5018D2DCDDE8DE0888781E08F83FD
:101B60001982C70126D2029729F4D12E02E0CC2493
:101B7000C394DACFD12ED8CFBCD0F8948B85A98569
:101B8000BA85082E2BD217D278941FC006DF1DC04D
:101B900081E090E026D0C7010AD20297B1F00C2D67
:101BA00014C080917A00846080937A000EC07E0118
:101BB0000894E11CF11CB0E1AB2EB12CAC0EBD1EA3
:101BC000A8E08A2E912C8C0E9D1E8FD0882329F49C
:101BD00080917A00882309F465CF80917A00CBDE6A
:101BE00061CFAC0120E030E006C084EF91E00197C6
:101BF000F1F72F5F3F4F24173507B9F7089587B3E3
:101C0000886287BB88B3877C88BBBA9AC29A80E512
:101C10008DB981E08EB908958FB9779BFECF8FB1D2
:101C2000992708950F931F93182F062FC29882E0CB
:101C3000F3DF812FF1DF802FEFDFC29A1F910F9129
:101C40000895C298E9DF8FEFE7DFC29A99270895D8
:101C5000882321F08BB780648BBF08958BB78F7B6F
:101C60008BBF0895CF93DF93CADFC29880ECD4DF97
:101C7000C29A82E48A95F1F724E338E1F90165918B
:101C80007491862F6F3F59F0E9012296672FCADFC2
:101C9000FE01229665917491862F6F3FB9F767E038
:101CA0008FE0C0DF85B78C7F85BF81E0D1DFDF911A
:101CB000CF9108952FB7F89490916F00982B90933F
:101CC0006F002FBF08958091700099270895FC013F
:101CD000A0E6B0E08FE00D9001928150E1F78FB760
:101CE000F894109270008FBF089580916F0099272B
:101CF000089567E88FE096DF0895EF92FF920F93C3
:101D00001F93CF93DF93CDB7DEB721970FB6F8942B
:101D1000DEBF0FBECDBF7C01862FC2987DDF8FEF67
:101D20007BDF898387010F5F1F4F982F96959695CC
:101D30009695F80193838295880F807EF7018383BF
:101D40008FEF6ADF8983282F3327207E3070359507
:101D500027953595279535952795F7019381922BF2
:101D60008370982B9383898183FD06C081E0A2DF75
:101D7000C29A80E090E022C08FEF4EDFF8018183AD
:101D80008FEF4ADFF70181838FEF46DF89839981E7
:101D90009074F70195838F708683882361F089831F
:101DA00010E08FEF39DFF701E10FF11D87831F5F2F
:101DB00089811817B0F3C29A81E090E021960FB69E
:101DC000F894DEBF0FBECDBFDF91CF911F910F9171
:101DD000FF90EF9008951F920F920FB60F9211246B
:101DE0000F931F932F933F934F935F936F937F9323
:101DF0008F939F93AF93BF93EF93FF93CF93DF9313
:101E0000CDB7DEB76097DEBFCDBF80EB1ADF898329
:101E1000898186FD04C0898187FF27C01EC08E018D
:101E20000E5F1F4F60E9C80168DF898389818130B7
:101E3000E1F4809170008F5F80937000809170005A
:101E4000823010F082E036DFA0E6B0E0F8018FE0EB
:101E500001900D928150E1F708C08E010E5F1F4F77
:101E600064E9C8014ADF8983E1CF6096F894DEBF58
:101E7000CDBFDF91CF91FF91EF91BF91AF919F9136
:101E80008F917F916F915F914F913F912F911F9112
:101E90000F910F900FBE0F901F901895CF92DF9269
:101EA000EF92FF920F931F93CF93DF93CDB7DEB7DF
:101EB00021970FB6F894DEBF0FBECDBF6C01FC01B9
:101EC00016818BB78F7B8BBF80EABBDE89838BB794
:101ED00080648BBF898182FD55C0F6018081882393
:101EE00009F053C05FE0E52EE1228BB78F7B8BBFFB
:101EF000C29880E491DE86010F5F1F4FF601938147
:101F0000929596959770F8018381880F880F880FB6
:101F1000892B82DEF6012381822F8370886033272C
:101F20002C713070220F331F220F331F220F331FEB
:101F3000822B72DEF80181816FDEF60181816CDE19
:101F4000F6018581882379F48E2D66DEEE2071F00E
:101F50008601FF24F80187815FDEF3940F5F1F4F36
:101F6000FE14C1F703C08E2D806456DEC29A0000B5
:101F7000C29881E851DEC29A8BB780648BBF81E042
:101F8000F601808382E090E003C0108281E090E05F
:101F900021960FB6F894DEBF0FBECDBFDF91CF9173
:101FA0001F910F91FF90EF90DF90CF90089576DF13
:101FB000089574DF08951092700010926F0052DE41
:101FC0000895E199FECFBFBBAEBBE09A11960DB26A
:101FD0000895F7DFE02DF5DFF02D0895E199FECFAC
:101FE000BFBBAEBB0DBA11960FB6F894E29AE19A58
:061FF0000FBE0895FFCFB3
:0400000300001800E1
:00000001FF
